:100000000C948F000C94B7000C94B7000C94B700BC
:100010000C94B7000C94B7000C94B7000C94B70084
:100020000C94B7000C94B7000C94B7000C94B70074
:100030000C94B7000C94B7000C94B7000C94B70064
:100040000C94CC1C0C94B7000C943C1D0C94161D05
:100050000C94B7000C94B7000C94B7000C94B70044
:100060000C946E1D0C94B70005A84CCDB2D44EB9BB
:100070003836A9020C50B9918688083CA6AAAA2A4B
:10008000BE000000803F4E414E494E495459494EF2
:1000900046CDCCCC3D0AD7233C17B7D13877CC2BF3
:1000A000329595E6241FB14F0A000020410000C898
:1000B0004200401C4620BCBE4CCA1B0E5AAEC59D19
:1000C0007400000000230026002900000000002426
:1000D0000027002A0000000000250028002B000453
:1000E00004040404040404020202020202030303DF
:1000F00003030301020408102040800102040810D9
:100100002001020408102000000008000201000085
:10011000030407000000000000000000B91E1124C5
:100120001FBECFEFD8E0DEBFCDBF12E0A0E0B1E050
:10013000E6EBF2E502C005900D92AA39B107D9F7B6
:1001400026E0AAE9B2E001C01D92A33DB207E1F7A3
:1001500010E0CFE8D0E004C02197FE010E9464289F
:10016000CE38D107C9F70E94FE1E0C9459290C9471
:1001700000002091190630911A062115310509F465
:100180004EC0809117069091180641E1489FF001FA
:10019000499FF00D1124E75EFB4F40815181628140
:1001A00073814093090450930A0460930B04709385
:1001B0000C04448155816681778140930D045093EE
:1001C0000E0460930F04709310044085518562857E
:1001D0007385409311045093120460931304709339
:1001E000140444855585668577854093150450939E
:1001F00016046093170470931804108A01966EE138
:1002000070E00E943C2890931806809317062150B6
:10021000310930931A062093190681E0089580E091
:1002200008954F925F926F927F928F929F92AF92BA
:10023000BF92CF92DF92EF92FF920F931F93CF93D3
:10024000DF9309E014E081EA882E83E0982E90E0A5
:10025000A92E91E0B92E412C512C3201D0E0C0E002
:10026000F80161917191819191918F01F401219136
:100270003191419151914F010E947D266B017C018A
:1002800020E030E0A9010E949227181624F0F7FA26
:10029000F094F7F8F09420E030E040EC5FE3C70121
:1002A000B6010E94922787FD23C0219620E030E00E
:1002B00044EB52E4C701B6010E94EA2620E030E098
:1002C00041E654E40E9414250E9463270E94B3244F
:1002D000F50120813181428153810E94EA260E94EA
:1002E0006327461657066806790610F42B013C0171
:1002F000F4E0AF0EB11C84E00931180709F0B0CF6B
:10030000D093B703C093B60381E022970CF480E04A
:100310008093B803C301B201DF91CF911F910F9178
:10032000FF90EF90DF90CF90BF90AF909F908F9015
:100330007F906F905F904F900895833081F028F404
:10034000813099F08230A9F008958730A9F0883083
:10035000C9F08430B1F4809180008F7D03C080911A
:1003600080008F7780938000089584B58F7784BD57
:10037000089584B58F7DFBCF8091B0008F778093F7
:10038000B00008958091B0008F7DF9CF1F93CF9377
:10039000DF93282F30E0F901E95FFE4F8491F901E6
:1003A000ED50FF4FD491F901E152FF4FC491CC239E
:1003B000A9F0162F81110E949D01EC2FF0E0EE0FA5
:1003C000FF1FEB52FF4FA591B4918FB7F894EC91BA
:1003D000111108C0D095DE23DC938FBFDF91CF9140
:1003E0001F910895DE2BF8CF8E3008F08E50877065
:1003F000806480937C0080917A00806480937A008E
:1004000080917A0086FDFCCF8091780090917900F0
:1004100008953FB7F8948091770390917803A09165
:100420007903B0917A0326B5A89B05C02F3F19F038
:100430000196A11DB11D3FBFBA2FA92F982F882764
:10044000BC01CD01620F711D811D911D42E0660F3F
:10045000771F881F991F4A95D1F708958F929F9211
:10046000AF92BF92CF92DF92EF92FF926B017C012D
:100470000E9409024B015C01C114D104E104F104A2
:10048000B9F00E940902681979098A099B09683E36
:1004900073408105910580F321E0C21AD108E1087B
:1004A000F10888EE880E83E0981EA11CB11CE4CFF1
:1004B000FF90EF90DF90CF90BF90AF909F908F9084
:1004C0000895089508950895AF92BF92CF92DF9254
:1004D000EF92FF920F931F93CF93DF936C017B01F9
:1004E0008B01040F151FEB015E01AE18BF08C0178A
:1004F000D10759F06991D601ED91FC910190F081FD
:10050000E02DC6010995892B79F7C501DF91CF91BF
:100510001F910F91FF90EF90DF90CF90BF90AF9021
:100520000895FC01538D448D252F30E0842F90E0F9
:10053000821B930B541710F0CF96089501970895DE
:10054000FC01918D828D981761F0A28DAE0FBF2FA7
:10055000B11D5D968C91928D9F5F9F73928F90E0FD
:1005600008958FEF9FEF08952FB7F89480917B0344
:1005700090917C03A0917D03B0917E032FBF809367
:10058000230690932406A0932506B09326068BE1BC
:1005900096E00E94A00297FF26C02FB7F8948091A2
:1005A0007B0390917C03A0917D03B0917E032FBFCC
:1005B00040912306509124066091250670912606ED
:1005C000841B950BA60BB70B40911F06509120067C
:1005D000609121067091220684179507A607B70738
:1005E000B0F28FEF9FEF0895FC01918D828D9817E7
:1005F00031F0828DE80FF11D858D90E008958FEF29
:100600009FEF0895FC01918D228D892F90E0805CF1
:100610009F4F821B91098F73992708958BE196E074
:100620000E94020321E0892B09F420E0822F089523
:1006300080E090E0892B29F00E940E0381110C9438
:1006400000000895FC01A48DA80FB92FB11DA35A75
:10065000BF4F2C91848D90E001968F739927848FE2
:10066000A689B7892C93A089B1898C918370806405
:100670008C93938D848D981306C00288F389E02DA6
:1006800080818F7D80830895EF92FF920F931F9357
:10069000CF93DF93EC0181E0888F9B8D8C8D981335
:1006A0001AC0E889F989808185FF15C09FB7F89441
:1006B000EE89FF896083E889F9898081837080648D
:1006C00080839FBF81E090E0DF91CF911F910F91D8
:1006D000FF90EF900895F62E0B8D10E00F5F1F4FE7
:1006E0000F731127E02E8C8D8E110CC00FB607FCF6
:1006F000FACFE889F989808185FFF5CFCE010E9484
:100700002203F1CFEB8DEC0FFD2FF11DE35AFF4FCC
:10071000F0829FB7F8940B8FEA89FB898081806211
:10072000CFCFCF93DF93EC01888D8823B9F0AA89CE
:10073000BB89E889F9898C9185FD03C0808186FD9C
:100740000DC00FB607FCF7CF8C9185FFF2CF8081EB
:1007500085FFEDCFCE010E942203E9CFDF91CF913B
:1007600008952091C402260F3327331F213231050B
:10077000ECF42091DF03FC0190E080E0243069F08C
:1007800082E00895A091C4022191AC014C555D4FC7
:10079000A40FB52FB11D2C930196861798F3809165
:1007A000C402680F6093C40280E0089581E0089558
:1007B0001092DF0381E08093DE031092B90361E0C1
:1007C00082E10E94C60161E083E10E94C601E9EB7B
:1007D000F0E080818E7F808380818D7F808388E4BC
:1007E0008093B80085E48093BC000895CF93DF9395
:1007F00091E09093A3028823B9F0C091B800D09102
:10080000BA008091BC008A7B8093BC0060E082E1EA
:100810000E94C60160E083E10E94C6010E94D803E5
:10082000D093BA00C093B800DF91CF9108958F9212
:100830009F92AF92BF92CF92DF92EF92FF920F936F
:100840001F93CF93DF93D0910804D13208F0D7C023
:10085000182FC09107040E9409026B017C0180914E
:10086000DF0381116BC082E08093DF031093DE030E
:100870008FEF8093DD031092DC03D093DB03A7EEB0
:10088000B3E0EBEBF3E080E0D81391C01092BA0331
:100890008091BA03CC0FC82BC093BA038091B903DF
:1008A000813009F088C01092B9030E9409026B01DF
:1008B0007C018091BA038093BB008091E103909109
:1008C000E203A091E303B091E403892B8A2B8B2BE5
:1008D000A1F00E9409020091E1031091E20320912E
:1008E000E3033091E4036C197D098E099F09061713
:1008F00017072807390708F442C08091BC0083FD20
:10090000D8CF85EC8093BC000E9409026B017C016A
:100910008091DF03823009F450C08091DD038F3F66
:1009200009F46FC08091DD03803209F46CC08091BE
:10093000DD03803309F469C084E026C08091E103BF
:100940009091E203A091E303B091E403892B8A2BF9
:100950008B2B09F484CF0E9409028090E1039090D0
:10096000E203A090E303B090E4036C197D098E09C3
:100970009F0986169706A806B90608F070CF8091E1
:10098000E0030E94F60385E01092E603109208044B
:100990001092E503DF91CF911F910F91FF90EF909F
:1009A000DF90CF90BF90AF909F908F9008959D91D2
:1009B00091938F5F69CF85EEA5CF8091E1039091F0
:1009C000E203A091E303B091E403892B8A2B8B2BE4
:1009D00009F49ECF0E9409020091E1031091E20305
:1009E0002091E3033091E4036C197D098E099F097E
:1009F000061717072807390708F08ACFC0CF81E00C
:100A0000C3CF80E0C1CF82E0BFCF83E0BDCF1F93D3
:100A1000CF93DF93EA01122FDC0111968D919C9107
:100A2000DC01ED91FC910280F381E02D0995C8175E
:100A3000D90729F4812F0E94170491E0811190E0D9
:100A4000892FDF91CF911F910895CF93DF93EC0110
:100A50008B818823A1F0888191E09093E5038093B6
:100A600007041092E6031092080481E00E94170424
:100A700091E0811190E0892FDF91CF91089510923C
:100A8000800310927F031092E603109208040E94E4
:100A9000D80381E692E09093E8028093E70282E631
:100AA00092E09093EA028093E90281E08B83CE0189
:100AB0000E942505982F8111CECFDDCF0895E091BA
:100AC000800380917F03E81730F4F0E0EF57FC4F8C
:100AD000808190E008958FEF9FEF089590918003BB
:100AE00080917F032FEF3FEF981748F4E92FF0E054
:100AF000EF57FC4F208130E09F5F90938003C90146
:100B0000089580917F0390918003891B990B08952C
:100B1000CF92DF92EF92FF920F931F93CF93DF93C9
:100B20007C01CB018A012091E503222389F0EB01AE
:100B30006B01C40ED51ECC15DD0569F06991D70196
:100B4000ED91FC910190F081E02DC7010995F3CF63
:100B5000642F0E94B103C801DF91CF911F910F91C3
:100B6000FF90EF90DF90CF900895CF93DF931F9287
:100B7000CDB7DEB769832091E5032223F9F02091F8
:100B80000804203258F021E030E0FC013383228356
:100B900090E080E00F90DF91CF9108958091E6037F
:100BA000E82FF0E0E951FC4F998190838F5F8093AB
:100BB000E6038093080481E090E0ECCF61E0CE0191
:100BC00001960E94B103F7CF90E080E008951F9353
:100BD000CF93DF9300D000D01F92CDB7DEB7880F40
:100BE000880F8A5F89831A821B826C837D83809140
:100BF000C7069091C806FC01248135812530310556
:100C0000E0F0208111E01093E50320930704109297
:100C1000E6031092080421E045E050E0BE016F5F5A
:100C20007F4F0E94070581270F900F900F900F9024
:100C30000F90DF91CF911F91089581E0F5CF2F9212
:100C40003F924F925F926F927F928F929F92AF925C
:100C5000BF92CF92DF92EF92FF920F931F93CF93A9
:100C6000DF93CDB7DEB72A970FB6F894DEBF0FBE7D
:100C7000CDBF1C012A013B0109831A832B833C83CE
:100C80008F8D98A1A9A1BAA18D839E83AF83B887C8
:100C90009CE02916310469F5CB01BA01905828E28D
:100CA0003FEA41EA5FE30E9414252B013C01C701A2
:100CB000B601905828E23FEA41EA5FE30E9414251A
:100CC000162F072F89879A8769817A818B819C816A
:100CD000905828E23FEA41EA5FE30E9414256B0145
:100CE0007C01812F902FA985BA8589839A83AB8354
:100CF000BC8320E030E04FE254E4C501B4010E941F
:100D00007E264B015C0120E030EC4FE055E46D8124
:100D10007E818F8198850E947E26A50194010E9484
:100D20007D266D837E838F83988729813A814B81CD
:100D30005C81C301B2010E947D269B01AC016D81E3
:100D40007E818F8198850E9414252B013C01298189
:100D50003A814B815C81C701B6010E947D269B01CF
:100D6000AC01C301B2010E94EA26A50194010E94D0
:100D70007E266B017C0120E030E04AEF53E40E94C4
:100D8000AE2487FD46C020E030E44CE155E4C701C5
:100D9000B6010E94922718160CF442C020E034E2FB
:100DA00044E759E4C701B6010E94EA2620E030E09A
:100DB00048E452E40E94142520E030E040E855E485
:100DC0000E9414250E945C276115A0E17A0714F0A7
:100DD0006FEF7FE077FF02C070E060E0822D2A961F
:100DE0000FB6F894DEBF0FBECDBFDF91CF911F913C
:100DF0000F91FF90EF90DF90CF90BF90AF909F90BA
:100E00008F907F906F905F904F903F902F900C94B9
:100E1000E705C12CD12C9AEFE92E93E4F92EBECF31
:100E2000C12C80E4D82E8CE1E82E85E4F82EB6CFD4
:100E30006F927F928F929F92AF92BF92CF92DF92EA
:100E4000EF92FF920F931F93CF93DF933C0180911A
:100E50006C0390916D038615970589F161112FC080
:100E600080916703C091680391E069167104B9F538
:100E70001F921F921F921F92812C912C5401C12C02
:100E8000D12C24E3E22E23E4F22E95018401B70154
:100E9000A60190E00E941F061F921F921F921F92B0
:100EA0009501B501A4018C2F90E00E941F068DB71B
:100EB0009EB708960FB6F8949EBF0FBE8DBFC301B4
:100EC000DF91CF911F910F91FF90EF90DF90CF9026
:100ED000BF90AF909F908F907F906F900895611416
:100EE000710469F71F921F921F921F92812C912CFF
:100EF0005401C12CD12C94E3E92E93E4F92E9501F1
:100F00008401B501A40190E00E941F06D0E01F9269
:100F10001F921F921F929501B701A601CE010E9458
:100F20001F0662E370E080E090E00E942E021F92B4
:100F30001F921F921F929501B501A401CE010E943C
:100F40001F068DB79EB70C960FB6F8949EBF0FBEC6
:100F50008DBFB5CF4F925F926F927F928F929F928B
:100F6000AF92BF92CF92DF92EF92FF920F931F93B7
:100F7000CF932B013C01C42F20E030E044EB52E43E
:100F80000E94AE2487FD41C020E030E047E053E4FA
:100F9000C301B2010E9492271816F4F1C11120C0BA
:100FA0008091670393EC9F939F931F921F92812CD4
:100FB000912C99EBA92E93E4B92EC12CD12C27E0CA
:100FC000E22E23E4F22E00E010E024EB32E4B30141
:100FD000A20190E00E941F060F900F900F900F90BB
:100FE000C301B2010E945C27CB01CF911F910F91E9
:100FF000FF90EF90DF90CF90BF90AF909F908F9039
:101000007F906F905F904F900895412C512C44EB4E
:10101000642E42E4742EC2CF412C512C37E0632E53
:1010200033E4732EBBCFCF93DF9300D0CDB7DEB7C1
:1010300089836A838091C7069091C806FC01248148
:1010400035812230310590F0208131E03093E50385
:10105000209307041092E6031092080421E042E076
:1010600050E0BE016F5F7F4F0E9407050F900F9009
:10107000DF91CF9108952F923F924F925F926F929E
:101080007F928F929F92AF92BF92CF92DF92EF9218
:10109000FF920F931F93CF93DF931F92CDB7DEB7CD
:1010A0006B017C0120E030E040E85FE30E94AE2469
:1010B00087FDECC020E030EC4AE555E4C701B601FD
:1010C0000E94922718160CF4E8C06091C90670912E
:1010D000CA068091CB069091CC060E94B3244B01A6
:1010E0005C0120E030E040E855E4C701B6010E9411
:1010F00014259B01AC01C501B4010E94EA2620E041
:1011000030E040E05FE30E947E2620E030E040E8EF
:101110005FE30E947D266B017C0120E030E040E42B
:1011200050E40E94AE2487FDC0C020E030E04FE7CD
:1011300053E4C701B6010E94922718160CF4BBC0F5
:10114000C701B6010E946327962E1982E090C70658
:10115000F090C806D70114968D919C911597892B14
:1011600009F41AC18C9191E09093E50380930704F0
:101170001092E6031092080420E041E050E0BE0126
:101180006F5F7F4FC7010E940705882309F404C1E0
:101190008824839485EC382EF701C480D58001E043
:1011A000C114D10409F400E0A02EB12CD7012C9079
:1011B0000E9409022B013C018091DF03811182C052
:1011C000102F8092DF030093DE03BFEFB093DD03A7
:1011D0001092DC038FEF800F8093DB038092BA03C1
:1011E0008091BA03220C282A2092BA038091B90375
:1011F000813009F0A8C01092B9030E9409022B01A6
:101200003C018091BA038093BB008091E1039091EF
:10121000E203A091E303B091E403892B8A2B8B2B8B
:10122000A1F00E9409022091E1033091E203409174
:10123000E3035091E4036419750986099709261799
:1012400037074807590708F45EC08091BC0083FD4A
:10125000D8CF3092BC000E9409022B013C01809142
:10126000DF03813009F473C08091DC03801710F430
:101270001091DC03EBEBF3E0A1E8B3E080E0811731
:1012800009F446C091919D938F5FF9CFC12CD12C69
:1012900040E8E42E4FE3F42E18CFC12C30ECD32ECF
:1012A0003AE5E32E35E4F32E10CFC12CD12C20E407
:1012B000E22EFE2C45CFC12CD12C9FE7E92E93E4E2
:1012C000F92E3ECF8091E1039091E203A091E303D8
:1012D000B091E403892B8A2B8B2B09F46DCF0E94EC
:1012E00009022091E1033091E2034091E303509120
:1012F000E403641975098609970926173707480713
:10130000590708F059CF8091E0030E94F60310E0DE
:101310001092800310937F031A151B04E9F590E0E7
:1013200080E08A159B05A8F5D70111968D919C91B7
:10133000DC01ED91FC910284F385E02D0995898310
:1013400081E090E0EECFE5EEE093BC0084CF8091A9
:10135000E1039091E203A091E303B091E403892BB0
:101360008A2B8B2B09F47BCF0E9409022091E10389
:101370003091E2034091E3035091E403641975094D
:1013800086099709261737074807590708F067CFD6
:10139000BACFCD2809F400CF1981612F6F76606133
:1013A00080E00E941308692D8EEF0E941308612FC0
:1013B00080E00E94130865E070E080E090E00E9409
:1013C0002E02612F606A80E00E9413080F90DF9167
:1013D000CF911F910F91FF90EF90DF90CF90BF9032
:1013E000AF909F908F907F906F905F904F903F90C5
:1013F0002F900895FC0101900020E9F73197AF018B
:10140000481B590BBC018BE196E00C94640284E705
:1014100091E00C94FA09CF93DF93FC01448155814C
:10142000608171818BE196E00E946402EC010E9470
:10143000070A8C0F9D1FDF91CF9108958F929F9285
:10144000AF92BF920F931F93CF93DF93CDB7DEB7C9
:10145000A1970FB6F894DEBF0FBECDBF19A24230E0
:1014600008F44AE08E010F5D1F4F842E912CB12CA1
:10147000A12CA50194010E944C26E62FB901CA01B6
:10148000EA30F4F4E05DD801EE938D01232B242B98
:10149000252B79F790E080E0109719F0CD010E949C
:1014A000FA09A1960FB6F894DEBF0FBECDBFDF914B
:1014B000CF911F910F91BF90AF909F908F90089503
:1014C000E95CE1CFCF92DF92EF92FF92CF93DF936F
:1014D0006B017C016DE28BE196E00E944403EC011C
:1014E00066277727CB016C197D098E099F094AE091
:1014F0000E941E0A8C0F9D1FDF91CF91FF90EF90ED
:10150000DF90CF900895CF93DF93BC01990F880BA4
:10151000990B97FF0AC00E94620AEC010E94070A19
:101520008C0F9D1FDF91CF9108954AE00E941E0A03
:10153000F4CFCF93DF930E94FA09EC010E94070ACF
:101540008C0F9D1FDF91CF9108954F925F926F9204
:101550007F928F929F92AF92BF92CF92DF92EF9243
:10156000FF920F931F93CF936B017C01742EAC01FC
:101570009B010E949F27882399F087E791E0CF91F4
:101580001F910F91FF90EF90DF90CF90BF90AF90A1
:101590009F908F907F906F905F904F900C94FA097E
:1015A00046015701E894B7F82FEF3FEF4FE75FE7A9
:1015B000C501B4010E949F2781110DC02FEF3FEF9D
:1015C0004FE75FE7C501B4010E94AE2418161CF472
:1015D0008BE791E0D4CF2FEF3FEF4FE75FE4C701F8
:1015E000B6010E94922718161CF48FE791E0C7CF2E
:1015F0002FEF3FEF4FE75FECC701B6010E94AE242B
:1016000087FDF3CF20E030E0A901C701B6010E94B9
:10161000AE2410E000E087FF0AC06DE28BE196E0A7
:101620000E9444038C01F7FAF094F7F8F094C0E0BC
:1016300060E070E080E09FE37C1641F020E030E065
:1016400040E251E40E94EA26CF5FF6CFA70196015F
:101650000E947E262B013C010E9463274B015C0106
:101660004AE00E941E0A7C01E00EF11ECC23C1F16B
:10167000C501B4010E94B3249B01AC01C301B201B6
:101680000E947D264B015C016EE28BE196E00E9498
:101690004403E80EF91EC15018F120E030E040E2AA
:1016A00051E4C501B4010E9414252B013C010E94A4
:1016B00063274B01B12CA12C4AE0C501B4010E9463
:1016C0001E0AE80EF91EC501B4010E94B3249B0155
:1016D000AC01C301B2010E947D264B015C01DBCF4E
:1016E000C701CF911F910F91FF90EF90DF90CF90A6
:1016F000BF90AF909F908F907F906F905F904F9032
:101700000895CF93DF93EC0188819981009711F0C0
:101710000E941D22198218821D821C821B821A823D
:10172000DF91CF910895FC0180819181009711F0A4
:101730000C941D2208959F92AF92BF92CF92DF9298
:10174000EF92FF920F931F93CF93DF935C017B0186
:101750008B01D0E0C0E0F80191908F016501CC0EC3
:10176000DD1EC6010E94D525981621F0692DC601FF
:101770000E94DD252196C430D10569F7C701DF91AC
:10178000CF911F910F91FF90EF90DF90CF90BF907E
:10179000AF909F900895CF92DF92EF92FF920F93B8
:1017A0001F93CF93DF93EB017B0124E0E20EF11C4A
:1017B0008B016C01C61AD70AC601800F911F0E94C7
:1017C000D525F80181938F01EE15FF05A9F7CE010C
:1017D000DF91CF911F910F91FF90EF90DF90CF900D
:1017E0000895FC0180819181009711F00C94A6224C
:1017F00060E070E0CB010895FC0180819181009749
:1018000011F00C94AA2260E070E0CB010895CF9310
:10181000DF93FC01248135814217530788F4C0818E
:10182000D181062E000C770BCE01840F951F0E94EC
:101830003029009729F08C1B9D0BDF91CF910895E3
:101840008FEF9FEFFACFFB0144815581FC0124818A
:1018500035812417350778F080819181009759F000
:10186000FB01608171816115710529F00E944B298E
:1018700021E0892B09F020E0822F0895FC012481CA
:101880003581232B39F421E0FB018081882349F045
:1018900020E007C0808191810E943B2921E0892BB3
:1018A000B9F7822F08950F931F93CF93DF93EC0125
:1018B00088819981009759F02A813B812617370743
:1018C00030F081E0DF91CF911F910F9108958B014E
:1018D0006F5F7F4F0E946A28009759F09983888331
:1018E0001B830A832C813D81232B59F7FC01108235
:1018F000E8CF80E0E7CFEF92FF920F931F93CF9353
:10190000DF93EC017B01198218821B821A821D82EF
:101910001C82FB0101900020E9F731978F01061B23
:10192000170BB8010E94530C811109C0CE01DF9141
:10193000CF911F910F91FF90EF900C94810B1D831D
:101940000C83B70188819981DF91CF911F910F910D
:10195000FF90EF900C944429EF92FF920F931F9306
:10196000CF93DF938C017B01EB0109900020E9F715
:101970002197C61BD70BBE010E94530C811109C0D1
:10198000C801DF91CF911F910F91FF90EF900C94C0
:10199000810BF801D583C483B70180819181DF91E8
:1019A000CF911F910F91FF90EF900C944429AF922B
:1019B000BF92CF92DF92EF92FF920F931F93CF933C
:1019C000DF936C015B017A0189012417350720F44C
:1019D0008F2D7901042F182F66E771E0C6010E9450
:1019E0007B0CD5011496CD91DC91EC16FD06E0F44C
:1019F0000C171D0708F4E801D501ED91FC91119732
:101A0000EC0FFD1F108110826D917C916E0D7F1D7A
:101A1000C60161157105A1F00E94AC0CF501808131
:101A20009181C80FD91F1883C601DF91CF911F91F3
:101A30000F91FF90EF90DF90CF90BF90AF900895FF
:101A40000E94810BEBCFCF93DF93EC01FB0124814C
:101A500035810E94D70CCE01DF91CF910895EF928E
:101A6000FF920F931F93CF93DF936115710541F49C
:101A700080E0DF91CF911F910F91FF90EF9008953B
:101A800041155105B1F07B01EC010C811D81040F62
:101A9000151FB8010E94530C882351F32881398106
:101AA0008C819D81B701820F931F0E9444291D8361
:101AB0000C8381E0DECF0F931F93CF93DF9300D091
:101AC000CDB7DEB78C0166E771E00E947B0C0E9407
:101AD000B40297FD0EC08A30910559F089831A82AD
:101AE00041E050E0BE016F5F7F4FC8010E942F0DA3
:101AF000EECFC8010F900F90DF91CF911F910F9102
:101B00000895CF93DF93EC01FB01448155816081FF
:101B100071810E942F0D811103C0CE010E94810BA3
:101B2000CE01DF91CF91089585ED8093BC00809127
:101B3000E1039091E203A091E303B091E4030796DF
:101B4000A11DB11D23E0B695A795979587952A9578
:101B5000D1F72091BC0024FD03C01092DF0308954B
:101B60004091E1035091E2036091E3037091E4033B
:101B7000452B462B472B69F30097A105B10541F092
:101B80002AE22A95F1F700C00197A109B109E1CF36
:101B90008091E0030C94F6032F923F924F925F9254
:101BA0006F927F928F929F92AF92BF92CF92DF926D
:101BB000EF92FF920F931F93CF93DF9300D000D04B
:101BC0001F92CDB7DEB7362E272E89839A8349011F
:101BD0005A011D830C83EB820E947D266B017C01E0
:101BE00020E030E0A9010E94922718160CF067C08F
:101BF00020E030E040EC5FE3C701B6010E94AE2474
:101C000087FF68C0AC81BD8113E0AA0FBB1F1A9586
:101C1000E1F7CD0181519D4FFC0181909190A19000
:101C2000B190A85DBE4F1496CD90DD90ED90FC90E4
:101C300017970D911D912D913C91AC81BD81AA0FFB
:101C4000BB1FA05EBE4F43814F9342814F934181A2
:101C50004F93FC0184818F93432D522D69817A81AA
:101C60008D919C910E941F0681E12C813D81829F74
:101C7000F001839FF00D1124E15FFC4F108A0F905B
:101C80000F900F900F90632D722D89819A810F9084
:101C90000F900F900F900F90DF91CF911F910F91A8
:101CA000FF90EF90DF90CF90BF90AF909F908F907C
:101CB0007F906F905F904F903F902F90089520E01D
:101CC00030E040EC5FEBC701B6010E949227181686
:101CD0000CF498CF81E14C815D81849FF001859F58
:101CE000F00D1124E15FFC4F808981113DC080829D
:101CF0009182A282B382832D922DA981BA8184839D
:101D00009583A683B7832FB7F89480917B03909136
:101D10007C03A0917D03B0917E032FBF80879187C4
:101D2000A287B3878091B803882309F4B9C0809152
:101D3000B2039091B303A091B403B091B50300979F
:101D4000A105B10509F4ACC084879587A687B7873C
:101D500081E12C813D81829FF001839FF00D112450
:101D6000E15FFC4F81E0808B2FB7F89460917B039B
:101D700070917C0380917D0390917E032FBF21E1C0
:101D80004C815D81249F8001259F100D1124015FEE
:101D90001C4FF801C084D184E284F3846C197D095E
:101DA0008E099F090E94B3246B017C01F8016485B0
:101DB0007585868597850E94B3249B01AC01C70178
:101DC000B6010E94EA262B013C0120E030E040E809
:101DD0005FE30E949227181634F4412C512C70E8CE
:101DE000672E7FE3772E81E12C813D81829F8001E8
:101DF000839F100D1124015F1C4FF801308021805A
:101E0000F281F983F801F381FA8320E030E0A9013F
:101E1000C301B2010E94AE2418160CF0A3C0F80151
:101E2000F480E580D680178120E030E040E85FE371
:101E3000C301B2010E94922787FFE7C02BED3FE06C
:101E400049E450E4C301B2010E94142520E030E0CF
:101E500040E05FE30E9414250E9497279B01AC019C
:101E60000E9414254B015C01232D322D49815A819A
:101E70006F2D7E2D8D2D912F0E947D266B017C0173
:101E800020E030E044E353E40E94922718160CF05F
:101E900042C020E030E044EB53E4C701B601ECCF90
:101EA00020E030E0A901C701B6010E949227181670
:101EB00024F0F7FAF094F7F8F09481E1EC81FD81D9
:101EC0008E9F80018F9F100D1124015F1C4F20E019
:101ED00030E044EB52E4C701B6010E94EA2620E05C
:101EE00030E041E654E40E941425EC81FD81EE0FC0
:101EF000FF1FEE0FFF1FE050FF4F20813181428115
:101F000053810E94EA260E946327F801648775873F
:101F1000868797871DCF20E030E044E353ECC7016C
:101F2000B6010E94AE2487FF0BC020E030E044EBF6
:101F300053E4C701B6010E947E266B017C01EBCF02
:101F4000A7019601C501B4010E9414259B01AC01B3
:101F5000632D722D89819A810E947E26362E272E2E
:101F600089839A83FB81F1113AC0EC81FD8183E082
:101F7000EE0FFF1F8A95E1F7AF0141515D4FDA0186
:101F80008D909D90AD90BD90E85DFE4FC480D58052
:101F9000E680F78000811181228133818C819D81CF
:101FA000880F991F805E9E4F13966C9113976F93C5
:101FB00012966C9112976F9311966C916F93FA0130
:101FC00044814F93432D522D69817A81FC01808198
:101FD00091810E941F060F900F900F900F9020E0AC
:101FE00030E040E85FE3C301B2010E94922787FD21
:101FF0004ACE81E12C813D81829FF001839FF00DCB
:102000001124E15FFC4F108A3ECE3B811701D9823B
:102010001A833111EECFA9CF2F923F924F925F9248
:102020006F927F928F929F92AF92BF92CF92DF92E8
:10203000EF92FF920F931F93CF93DF93CDB7DEB74D
:10204000CD54D1090FB6F894DEBF0FBECDBF66E701
:1020500071E0CE01CA960E947B0C8BE196E00E9453
:102060000203892B09F4BDC18E010F5F1F4FC80108
:102070000E945B0D8AAD9BAD009709F48DC069810C
:102080007A816115710509F485C04CAD5DAD2D8176
:102090003E814217530708F47DC00E9444298D8178
:1020A0009E819FAF8EAF1E821D82C8010E94930B3E
:1020B00063E871E0CE01CA960E943E0C882309F4C1
:1020C0007CC0E090CD06F090CE06E114F10421F43E
:1020D00053EDE52E56E0F52E88E891E00E94990A2E
:1020E0006EE871E0CE0182960E947B0C6CE971E093
:1020F000C8010E947B0CBE016E5D7F4FC8010E942B
:10210000810D0E940B0AC8010E94930BCE0182969A
:102110000E94930B81EA91E00E94990A1BA21AA2E5
:102120001DA21CA21FA21EA2B8016E197F09072EB4
:10213000000C880B990B2AE0A8010E94F122B8013B
:10214000CE0182960E94AC0C6BEB71E0C8010E943C
:102150007B0CBE016E5D7F4FC8010E94810D7C012A
:1021600046E050E066EC71E00E942F0D811103C043
:10217000C7010E94810BC7010E940B0AC8010E947F
:10218000930BCE0182960E94930B8DEC91E00E94FE
:10219000990A27C10E941D2289819A819BAF8AAF2B
:1021A0008B819C819DAF8CAF8D819E819FAF8EAFC7
:1021B0001A8219821C821B8276CF63ED71E0C801FE
:1021C0000E947B0CB801CE01CA960E94230CF82E07
:1021D000C8010E94930BFF2009F452C150E040E077
:1021E0006CE2CE01CA960E94070C4C016C012FEFE5
:1021F000C21AD20AA6016CE2CE01CA960E94070C4E
:102200007C013C013FEF631A730AA3016CE2CE012B
:10221000CA960E94070C5C018920809409F4E1C0F1
:102220009FEFE916F90609F4DCC0AFEFAA16BA066B
:1022300009F4D7C09701A601BE01665C7F4FC801B3
:102240000E94D70CC8010E94FC0B6B01C8010E94C0
:10225000930B9501A301BE01665C7F4FC8010E94EC
:10226000D70CC8010E94F10B2B013C01C8010E9450
:10227000930BA5014F5F5F4FBE01665C7F4FC801A6
:102280000E94230DC8010E94F10B4B015C01C801A3
:102290000E94930BB4E0CB16D10408F040C0F601C5
:1022A00043E0EE0FFF1F4A95E1F7E151FD4F4082F9
:1022B00051826282738284829582A682B7826FEE97
:1022C00072E081E090E00E949B0B63EF72E085E09A
:1022D00090E00E949B0B67EF72E089E090E00E9423
:1022E0009B0B6BEF72E08DE090E00E949B0B6FEF19
:1022F00072E081E190E00E949B0B63E073E085E176
:1023000090E00E949B0B67E073E089E190E00E94FF
:102310009B0B6BE073E08DE190E00E949B0B9FEEC6
:10232000692E92E0792E28E2422E21E0522E39E0E9
:10233000232E34E0332EE0E2F1E02296FFAFEEAF41
:10234000229721EA33E026963FAF2EAF2697D3019E
:102350008D909D90AD90BC90F201C480D580E680B8
:10236000F7800081118122813381D1014D915D91EE
:102370006D917C91F30187818F9386818F93858105
:102380008F9384818F932296AEADBFAD22978D91AE
:102390009D912296BFAFAEAF22970E941F06F1011A
:1023A00081919191A191B1911F012696EEADFFAD62
:1023B000269781939193A193B1932696FFAFEEAFA9
:1023C0002697F8E06F0E711C28E0420E511C0F900A
:1023D0000F900F900F903FE0631633E0730609F003
:1023E000B6CF2090ED023090EE022114310409F0B6
:1023F00044C080919D0290919C02992311F40C9409
:10240000DE1A90916303992311F40C94DE1A882349
:1024100009F440C609E014E080E2E82E81E0F82EDD
:1024200091EAC92E93E0D92E29E1A22E24E0B22E02
:10243000D8016D917D918D919D918D01F7019080D5
:10244000F2E0EF0EF11C0E946327892D0E94E70540
:10245000F801349780819181A281B381F601819343
:102460009193A193B1936F01A016B10609F786E885
:1024700092E00E94990A10929D02CE01CA9607C16D
:102480006EED71E0C8010E947B0CB801CE01CA96C6
:102490000E94230CF82EC8010E94930BFF2009F420
:1024A0006DC046E050E0BE01665C7F4FC8010E94EF
:1024B000230D66EE71E0CE0182960E947B0CBE0178
:1024C0006E5D7F4FC8010E94230CF82ECE018296CC
:1024D0000E94930BFF2059F141E050E0B801CE017A
:1024E00082960E94230DCE0182960E94F10B6B0111
:1024F0007C01CE0182960E94930B20E030E04AE7F7
:1025000054E4C701B6010E9414250E945C27709311
:10251000A2026093A1026091A1027091A202072E13
:10252000000C880B990B0E942E02C801C7C265EEF1
:1025300071E0CE0182960E947B0CBE016E5D7F4FE2
:10254000C8010E94230CF82ECE0182960E94930BA4
:10255000FF2009F342E050E0B801CE0182960E94CC
:10256000230DCE0182960E94FC0B7093A202609311
:10257000A102CE0182960E94930BCDCF68EE71E04E
:10258000CE01CA960E943E0C882321F081E0809300
:10259000A00227CF61EF71E0CE01CA960E943E0CE7
:1025A0008823B9F01092A00210929F0210929E020E
:1025B000E9E0F4E0A1EAB3E04191519161917191B8
:1025C0004D935D936D937D9384E0E931F807A1F716
:1025D00008CF69EF71E0C8010E947B0CB801CE0101
:1025E000CA960E94230CF82EC8010E94930BFF206C
:1025F00009F469C050E040E06CE2CE01CA960E9446
:10260000070C01966C0189E0882E84E0982EF12C4D
:10261000E12CA6016CE2CE01CA960E94070C5C0177
:102620009FEFA916B90641F5A3E0EA16F10469F592
:10263000A601BE01665C7F4FC8010E94230DC80140
:102640000E94FC0B0E94B524F40161937193819365
:1026500091934F016501FFEFCF1ADF0AC8010E9475
:10266000930B2FEFE21AF20A34E0E316F10489F635
:1026700081E080939D02B5CE9501A601BE01665C06
:102680007F4FC8010E94D70CDACFCE01CA960E94B4
:10269000930BC35BDF4F0FB6F894DEBF0FBECDBF09
:1026A000DF91CF911F910F91FF90EF90DF90CF902E
:1026B000BF90AF909F908F907F906F905F904F9062
:1026C0003F902F9008956EEF71E0CE01CA960E9460
:1026D0003E0C882329F010929C0285E092E057CDB1
:1026E0006AE072E0CE01CA960E943E0C882331F067
:1026F00081E080939C0280E192E049CD65E172E047
:10270000CE01CA960E943E0C882339F081E090E009
:102710009093EE028093ED0264CE6BE172E0CE0105
:10272000CA960E943E0C882329F01092EE02109265
:10273000ED0257CE61E272E0C8010E947B0CB80145
:10274000CE01CA960E94230CF82EC8010E94930B5A
:10275000FF2009F445C01092660381E080936B036B
:102760008AE590E090936D0380936C0350E040E025
:102770006CE2CE01CA960E94070CAC014F5F5F4F1E
:10278000BE01665C7F4FC8010E94230D6FE272E0BC
:10279000CE0182960E947B0CBE016E5D7F4FC80108
:1027A0000E94230CF82ECE0182960E94930BFF20EC
:1027B00091F042E050E0B801CE0182960E94230DD4
:1027C000CE0182960E94FC0BF62ECE0182960E94CC
:1027D000930BF092670382E392E00E94990AA5CEE0
:1027E00066E372E0C8010E947B0CB801CE01CA9674
:1027F0000E94230CF82EC8010E94930BFF2061F069
:1028000081E08093660310926B0310926D03109227
:102810006C0382E392E0BBCC60E472E0C8010E94EA
:102820007B0CB801CE01CA960E94230CF82EC80179
:102830000E94930BFF2009F460C082E0809366033E
:1028400010926B0310926D0310926C0350E040E005
:102850006CE2CE01CA960E94070C01967C01AEACD8
:10286000BFACEA14FB04A8F6A7016CE2CE01CA963D
:102870000E94070C6C018FEFC816D80609F4650199
:102880009601A701BE01665C7F4FC8010E94D70C6C
:102890006FE272E0CE0182960E947B0CBE016E5DFB
:1028A0007F4FC8010E94230CF82ECE0182960E9411
:1028B000930BFF20D1F042E050E0B801CE018296A8
:1028C0000E94230DCE0182960E94FC0BF62ECE01B3
:1028D00082960E94930BE0916B0381E08E0F8093B0
:1028E0006B03F0E0EA59FC4FF18276019FEFE91AA1
:1028F000F90AC8010E94930BB2CF6BE472E0C801E1
:102900000E947B0CB801CE01CA960E94230CF82EBF
:10291000C8010E94930BFF2009F47DC050E040E005
:102920006CE2CE01CA960E94070C8F3F980709F40B
:1029300058CD7C01BFEFEB1AFB0AA7016CE2CE0178
:10294000CA960E94070C6C018F3F980709F446C095
:102950009C01A701BE01665C7F4FC8010E94D70C95
:10296000C8010E94F10B4B015C01C8010E94930B4E
:10297000A6014F5F5F4FBE01665C7F4FC8010E949A
:10298000230DC8010E94F10BC8010E94930B809196
:102990006603811115C02FE632E143E05CE3C50117
:1029A000B4010E94EA2620E030E044E352E40E94B1
:1029B000142520E030E044EB52E40E947E2604C05F
:1029C000823041F4C501B4010E945C277093650315
:1029D0006093640381E080939B0203CDA701BE0155
:1029E000665C7F4FC8010E94230DC8010E94F10B55
:1029F0006B017C01C8010E94930B809166038111D9
:102A000007C02FE632E143E05CE3C701B601C9CF5E
:102A1000C701B601D9CF60E572E0CE01CA960E9427
:102A20003E0C882309F44DC080919C02811149C05D
:102A3000CE0182960E945B0DB3E58B2EB3E09B2EF8
:102A4000F12CE12CD12CC12CA6016CE2CE01829696
:102A50000E94070C5C018F3F980709F047C023E0F4
:102A6000E216F10449F5A601BE016E5D7F4FC80173
:102A70000E94230DC8010E94F10BD4016D937D9338
:102A80008D939D934D016501BFEFCB1ADB0AC80101
:102A90000E94930BEFEFEE1AFE0AF4E0EF16F1043A
:102AA00099F62091190630911A062E3131053CF124
:102AB0008EE592E00E94990ACE0182960E94930BC5
:102AC00090CC65E572E0CE01CA960E943E0C811161
:102AD00087C068E672E0CE01CA960E943E0C882349
:102AE00009F482C081E080939E027BCC9C01A60108
:102AF000BE016E5D7F4FC8010E94D70CBBCF809195
:102B0000EB029091EC0241E1489FF001499FF00DEA
:102B10001124E75EFB4F40915303509154036091A1
:102B200055037091560340835183628373834091B0
:102B30005703509158036091590370915A0344838D
:102B400055836683778340915B0350915C0360916A
:102B50005D0370915E034087518762877387409160
:102B60005F03509160036091610370916203448739
:102B700055876687778711E0108B01966EE170E0CC
:102B80000E943C289093EC028093EB022F5F3F4F12
:102B900030931A062093190684E692E00E94990A5F
:102BA00080919A02811188CF8091190690911A061E
:102BB000181619060CF080CF0E94B900882309F47A
:102BC0007BCF0E9411016093B2037093B303809393
:102BD000B4039093B5031093B10310939A026CCF92
:102BE00081E080939F02FDCB61E772E0C8010E9403
:102BF0007B0CB801CE01CA960E94230CF82EC801A6
:102C00000E94930BFF2009F4E8C044E050E0BE01AD
:102C1000665C7F4FCE018E960E94230DF12CE12C35
:102C2000CAA8DBA8EC14FD0408F0D4C0A7016CE22C
:102C3000CE018E960E94070C4C01019609F44601C4
:102C40009401A701BE01625D7F4FCE0188960E946C
:102C5000D70CA8A4B9A4A114B10439F0ECA4FDA424
:102C60006501E114F10409F07CC050E040E06AE342
:102C7000CE0188960E94070C7C018F3F980709F4CB
:102C800066C09C0150E040E0BE01685D7F4FCE0110
:102C900082960E94D70CA7014F5F5F4FBE01685D0F
:102CA0007F4FC8010E94230D64E872E0CE01C496F4
:102CB0000E947B0CBE016C5C7F4FCE0182960E940D
:102CC000230C882331F0FF24F3948EA19FA1029757
:102CD00008F4F12CCE01C4960E94930BFF2081F1E1
:102CE00041E050E0BE016E5D7F4FCE01C4960E9470
:102CF000230DCE01C4960E94FC0B7B01A1E0EA1AD1
:102D0000F108CE01C4960E94930BC8010E94F10BFA
:102D10002B013C01B4E0EB16F10490F420E030E02C
:102D2000A9010E94922718165CF4F701EE0FFF1F0D
:102D3000EE0FFF1FE050FF4F40825182628273828C
:102D4000C8010E94930BCE0182960E94930B7401DE
:102D5000EFEFEE1AFE0ACE0188960E94930B60CF29
:102D6000630136013FEF631A730AD6018C91082E76
:102D7000000C990B0E947D24892B91F7B1E0EB1A8E
:102D8000F108EA0CFB1CF7018081082E000C990B5E
:102D90000E947D24892B39F0EC14FD0420F0F1E031
:102DA000EF1AF108F0CF2FEFE21AF20AA7014C193F
:102DB0005D095DA74CA7AC14BD0420F4B601C501A4
:102DC0000E942729E8A5F9A58CA59DA5E80FF91F64
:102DD00010824BCFCE018E9671CE66E772E0C801AD
:102DE0000E947B0CB801CE01CA960E94230CF82EDB
:102DF000C8010E94930BFF2009F4F3CA47E050E09A
:102E0000BE01665C7F4FC8010E94230D64E872E03A
:102E1000CE0182960E947B0CBE016E5D7F4FC80181
:102E20000E94230C882331F0FF24F3948D819E812E
:102E3000029708F4F12CCE0182960E94930BFF209A
:102E400009F473CB41E050E0B801CE0182960E94B4
:102E5000230DCE0182960E94FC0B1B01F1E02F1A7C
:102E60003108CE0182960E94930B24E02216310491
:102E700008F05BCBF101EE0FFF1FEE0FFF1FEF55C8
:102E8000FC4F4080518062807380510163E0AA0C46
:102E9000BB1C6A95E1F7F501E85DFE4FC080D1806B
:102EA000E280F38084819581A681B78124968CAFDE
:102EB0009DAFAEAFBFAF2497F101EE0FFF1FE05EF5
:102EC000FE4F808191810C97B9F5C301B2019058F2
:102ED00028E23FEA41EA5FE30E9414252B013C010E
:102EE00024966CAD7DAD8EAD9FAD2497905828E2B1
:102EF0003FEA41EA5FE30E941425962E872E25962D
:102F00008FAF259729969FAF2997C701B601905893
:102F100028E23FEA41EA5FE30E94142524966CAF61
:102F20007DAF8EAF9FAF2497C92CD82C2596EFACE0
:102F300025972996FFAC2997D501A151BD4F5D0179
:102F400020E030E04FE254E46D917D918D919C91B1
:102F50000E947E2628966CAF7DAF8EAF9FAF2897DC
:102F600020E030EC4FE055E4F50164817581868105
:102F700097810E947E2628962CAD3DAD4EAD5FAD6B
:102F800028970E947D264B015C01A7019601C30191
:102F9000B2010E947D269B01AC01C501B4010E94D3
:102FA00014254B015C01A701960124966CAD7DAD03
:102FB0008EAD9FAD24970E947D269B01AC01C5017B
:102FC000B4010E94EA2628962CAD3DAD4EAD5FAD12
:102FD00028970E947E266B017C0120E030E04AEFBA
:102FE00053E40E94AE2487FD4EC020E030E44CE163
:102FF00055E4C701B6010E94922718163CF4C12C73
:1030000040E4D42E4CE1E42E45E4F42EC701B60191
:103010000E945C27CE018E960E948D1EB1016F5FCB
:103020007F4FCE0188960E948D1E6EE772E0CE0122
:1030300082960E947B0CBE01685D7F4FCE01829616
:103040000E94810D7C0141E050E063E972E00E9442
:103050002F0D811103C0C7010E94810BBE01625D6B
:103060007F4FC7010E94810D0E940B0ACE018296FC
:103070000E94930BCE0188960E94930BCE018E96F0
:103080000E94930B52CAC12CD12C3AEFE32E33E4A9
:10309000F32EBCCF26E131E026963FAF2EAF269728
:1030A00081EA93E02E969FAF8EAF2E97A0E2B1E01B
:1030B0002C96BFAFAEAF2C97EFEEF2E02296FFAFAB
:1030C000EEAF22972A969FAF8EAF2A97B0E18B2E54
:1030D000B5EF9B2EAA24AA94BA2C2696AEADBFAD0E
:1030E0002697ED90FD902696BFAFAEAF26978E2D1A
:1030F0000E94F4018C012C01990F66087708BFE04B
:10310000EB16F10409F4E5C10CF086C1FEE0EF1600
:10311000F10409F408C22C96AEADBFAD2C97ED902A
:10312000FD902C96BFAFAEAF2C9720E030E04FE281
:1031300054E42296EEADFFAD2297608171818281C9
:1031400093810E947E260E945C272B013C0120E097
:1031500030EC4FE055E42296AEADBFAD2297149609
:103160006D917D918D919C9117970E947E260E9472
:103170005C279B01AC012419350946095709B801A0
:10318000110F880B990B645E7C40810991090E94A4
:103190002C28A5019401BDE0EB16F10421F02FE6E7
:1031A00035EF4FEF5FEF0E94EB25420E531E641E7A
:1031B000751E642D752D653CE9E07E0714F064EC06
:1031C00079E0643FF1E07F0714F464EF71E0072ECB
:1031D000000C880B990B0E94B52420E034E244E7F0
:1031E00059E40E94EA2620E030E048E452E40E94DC
:1031F000142520E030E040E855E40E9414250E94A8
:103200005C278B016115704114F00FEF1FE017FF71
:1032100002C010E000E0B8018E2D0E94E705B80161
:10322000110F880B990B0E94B5242A96AEADBFAD45
:103230002A976D937D938D939D932A96BFAFAEAFE2
:103240002A972296EEADFFAD229738962296FFAFD1
:10325000EEAF229726962EAD3FAD26972E513140E8
:1032600009F03BCFE9E1F1E08491E5E0F1E0049180
:10327000E1EFF0E01491112309F47FC181110E9464
:103280009D01E12FF0E0EE0FFF1FEF53FF4FA591DF
:10329000B491EC910E2331E020E009F430E0832F6B
:1032A000922FA0916C03B0916D032696BFAFAEAF85
:1032B000269720916603211168C140E0892B09F00F
:1032C0005FC160E070E087E093E40E94AA079093FA
:1032D0006D0380936C038091A002882309F4CDC80C
:1032E000E0916C03F0916D032296FFAFEEAF229751
:1032F0008AE892E00E94FA0908E211E0D8016D9193
:103300007D918D919C910E945C274B01770FAA08BB
:10331000BB082E96EEADFFAD2E9741905190619077
:1033200071902E96FFAFEEAF2E97D80114966D9147
:103330007D918D919C9117970E945C276B01770F6F
:10334000EE08FF08C818D908EA08FB08C301B20153
:103350000E945C276C5B724081099109A70196016C
:103360000E942C2820E436E040E050E00E94EB254B
:10337000CA01B901680D791D8A1D9B1D072E000C1D
:10338000880B990B97FF0FC10E94620AB3E02B16BE
:10339000310409F40CC183E992E00E94FA09EFEFCD
:1033A0002E1A3E0A085F1F4FF4E02F16310409F071
:1033B000A5CF22962EAD3FAD229726968EAD9FAD1E
:1033C00026972817390709F458C88FE892E00E9419
:1033D000FA092091660380916C0390916D0321118D
:1033E000E9C0BC016A557109072E000C880B990BC6
:1033F0000E94B52420E030E044E352E40E94EA2633
:103400002FE632E143E05CE30E94142542E00E9493
:10341000A50A0E94070A31C820E1E216F10479F1F9
:1034200031E1E316F10409F076CE609174037091F6
:103430007503072E000C880B990B0E94B52423E31B
:1034400033E343E75FE30E9414256B017C01C30172
:10345000B2010E94B5242DEC3CEC4CE45DE30E94EB
:1034600014259B01AC01C701B6010E947E260E9473
:103470005C278B0170937503609374034CCE60914D
:10348000720370917303072E000C880B990B0E9436
:10349000B52423E333E343E75FE30E9414256B0184
:1034A0007C01C301B2010E94B5242DEC3CEC4CE43C
:1034B0005DE30E9414259B01AC01C701B6010E9487
:1034C0007E260E945C278B017093730360937203C6
:1034D00022CE6091700370917103072E000C880B4F
:1034E000990B0E94B52423E333E343E75FE30E9493
:1034F00014256B017C01C301B2010E94B5242DEC9F
:103500003CEC4CE45DE30E9414259B01AC01C70137
:10351000B6010E947E260E945C278B017093710386
:1035200060937003F8CD60916E0370916F03072E66
:10353000000C880B990B0E94B52423E333E343E787
:103540005FE30E9414256B017C01C301B2010E945C
:10355000B5242DEC3CEC4CE45DE30E9414259B016A
:10356000AC01C701B6010E947E260E945C278B0138
:1035700070936F0360936E03CECD90E080E091CEA8
:1035800060E070E084EB92E4A0CE223009F0A3CE9C
:1035900060E0892B29F481E090E00E94180797CE23
:1035A00090E080E0FACF4AE00E941E0AEFCE0E942F
:1035B000070AF5CE0E94830A0C943D12882309F471
:1035C00013C17FEE672E72E0772EE8E24E2EE1E027
:1035D0005E2EA9E0B4E02296BFAFAEAF2297E0E244
:1035E000F1E02696FFAFEEAF269721EA33E02A9668
:1035F0003FAF2EAF2A97D3018D909D90AD90BC9098
:10360000F201C480D580E680F7800081118122819B
:1036100033812296AEADBFAD22974D915D916D91F4
:103620007C91F30187818F9386818F9385818F931E
:1036300084818F932696AEADBFAD26978D919D91D7
:103640002696BFAFAEAF26970E941F062296EEAD1C
:10365000FFAD229781919191A191B1912296FFAFF7
:10366000EEAF22972A96EEADFFAD2A978193919304
:10367000A193B1932A96FFAFEEAF2A97F8E06F0EB1
:10368000711C28E0420E511C0F900F900F900F906C
:103690008FE093E08615970509F0ADCF86E892E0BC
:1036A0000E94990A10929D02EFE0F3E08089811157
:1036B0005CC1719633E0E335F307C1F701E0209177
:1036C0006C0330916D03809164039091650310E069
:1036D0002817390759F410919B02112309F447C1A7
:1036E00085E992E00E94990A10929B020023B1F0B2
:1036F00080919A02882391F00E94B900882309F4EE
:1037000038C10E9411016093B2037093B303809398
:10371000B4039093B50381E08093B1038091A0023C
:10372000882309F459C080919F02011128C1882380
:1037300009F18AE892E00E94FA0981EAE82E83E022
:10374000F82ED7016D917D918D919D917D0142E083
:103750000E94A50AB3E02B16310409F40DC183E9D8
:1037600092E00E94FA09EFEF2E1A3E0AF4E02F16BB
:10377000310439F7112381F180919E02882361F190
:103780008FE892E00E94FA092091660380916C0311
:1037900090916D032111FDC0BC016A557109072E7E
:1037A000000C880B990B0E94B52420E030E044E324
:1037B00052E40E94EA262FE632E143E05CE30E94F5
:1037C000142542E00E94A50A0E94070A85E992E0BA
:1037D0000E94990A10929E0265E070E080E090E0FD
:1037E0000E942E020C943D1280919A02882309F4C3
:1037F00054C08091A002882341F153E5A52E53E0E7
:10380000B52E69E0862E64E0962ED12CC12CD50110
:103810002D913D914D915D915D01F4016191719109
:10382000819191914F01E12C86010E94CC0DF5010F
:1038300034976083718382839383FFEFCF1ADF0A0B
:1038400024E0C216D10419F72FCF31EAA32E33E0BA
:10385000B32E49E0842E44E0942ED12CC12CD50106
:103860002D913D914D915D915D01F40161917191B9
:10387000819191914F01E12C86010E94CC0DF501BF
:1038800034976083718382839383FFEFCF1ADF0ABB
:1038900024E0C216D10419F707CF80919B02882338
:1038A000E9F02091660380916403909165032111F2
:1038B0000EC0BC01990F880B990B0E94B52440E003
:1038C0000E94AA0790936D0380936C03EDCE60E095
:1038D000223009F0E9CE0E941807F4CF80919F02B0
:1038E000882349F191EAA92E93E0B92E29E0822E8E
:1038F00024E0922ED12CC12CD5012D913D914D91DA
:103900005D915D01F40161917191819191914F01FE
:10391000EE24E39486010E94CC0DF5013497608378
:10392000718382839383FFEFCF1ADF0A24E0C216EC
:10393000D10411F7B9CE80919E02882309F4B4CE48
:10394000809164039091650320916603211108C062
:10395000BC01990F880B990B0E94B52441E0B0CFB0
:10396000223009F0A1CE61E0B6CF00E0A8CE11E090
:10397000BDCE10929A02D2CE0E94070AF4CE8823BE
:1039800009F4F8CE84E692E00E94990A10929F0210
:10399000F1CE0E94830A1ACF1F920F920FB60F9298
:1039A00011242F933F938F939F93AF93BF93809155
:1039B0007B0390917C03A0917D03B0917E033091B5
:1039C000760323E0230F2D3758F50196A11DB11D75
:1039D0002093760380937B0390937C03A0937D03D5
:1039E000B0937E038091770390917803A09179033F
:1039F000B0917A030196A11DB11D80937703909336
:103A00007803A0937903B0937A03BF91AF919F910C
:103A10008F913F912F910F900FBE0F901F9018958F
:103A200026E8230F0296A11DB11DD2CF1F920F923F
:103A30000FB60F9211242F933F934F935F936F9381
:103A40007F938F939F93AF93BF93EF93FF938BE1FC
:103A500096E00E942203FF91EF91BF91AF919F9159
:103A60008F917F916F915F914F913F912F910F9027
:103A70000FBE0F901F9018951F920F920FB60F92C6
:103A800011242F938F939F93EF93FF93E0912B0635
:103A9000F0912C068081E0913106F091320682FD92
:103AA0001BC09081809134068F5F8F732091350603
:103AB000821741F0E0913406F0E0E55EF94F958F12
:103AC00080933406FF91EF919F918F912F910F90EA
:103AD0000FBE0F901F9018958081F4CF1F920F9208
:103AE0000FB60F9211242F933F934F935F936F93D1
:103AF0007F938F939F93AF93BF93EF93FF938091A7
:103B0000B900887F803609F44AC0F0F5883209F49C
:103B1000A7C018F5803109F49BC0B8F4882309F4D4
:103B2000F9C0883009F494C0FF91EF91BF91AF9133
:103B30009F918F917F916F915F914F913F912F91C5
:103B40000F900FBE0F901F901895883109F488C010
:103B5000803251F78093DD0314C0803409F49DC096
:103B600040F48033B9F38833F9F68093DD0385ECB4
:103B7000B0C0803509F485C0883509F496C0883412
:103B800099F60E94940DD0CF883909F48CC038F58D
:103B9000883729F050F4883611F0803729F683E011
:103BA0008093DF031092E60257C0883809F47BC087
:103BB000803919F0803809F0B7CF8091E602803261
:103BC00008F071C0E091E60281E08E0F8093E6027A
:103BD0008091BB00F0E0EA53FD4F80833DC0803B05
:103BE00039F0E0F4803A09F479C0883A09F09CCFC2
:103BF00084E08093DF031092C5021092C402E0912A
:103C0000E702F091E80209958091C40281110FC08A
:103C100081E08093C4021092A40209C0803C09F4A0
:103C2000A6CF883C09F4A3CF883B09F07DCFE09173
:103C3000C50281E08E0F8093C502F0E0EC55FD4F88
:103C400080818093BB009091C5028091C40229C0FD
:103C50008091BA038093BB0085EC8093BC0064CF55
:103C60009091DC038091DB03981758F5E091DC0319
:103C700081E08E0F8093DC03F0E0E554FC4F8081FF
:103C8000E9CFE091DC0381E08E0F8093DC0380912B
:103C9000BB00F0E0E554FC4F80839091DC03809101
:103CA000DB039817C8F285E8D8CFE091DC0381E008
:103CB0008E0F8093DC038091BB00F0E0E554FC4F55
:103CC00080838091DE0381115CCF81E08093B90312
:103CD00084EA8093BC001092DF0326CF85EC8093AA
:103CE000BC001092DF038091E602803230F4E09154
:103CF000E602F0E0EA53FD4F10826091E60270E0C8
:103D0000E091E902F091EA0286EC92E009951092C6
:103D1000E6020ACF1092DD0334CF0F931F93CF93A7
:103D2000DF93CDB7DEB762970FB6F894DEBF0FBE54
:103D3000CDBF8C01CB01F801118210821382128257
:103D4000158214824AE0BE016F5F7F4F0E94D1222C
:103D5000BE016F5F7F4FC8010E94AC0C62960FB628
:103D6000F894DEBF0FBECDBFDF91CF911F910F91B1
:103D70000895EBE1F6E01382128288EE93E0A0E072
:103D8000B0E084839583A683B78324E531E0318353
:103D9000208325EC30E03587248724EC30E037871A
:103DA000268720EC30E0318B208B21EC30E0338B08
:103DB000228B22EC30E0358B248B26EC30E0378BE5
:103DC000268B118E128E138E148EE8EBF6E0138282
:103DD000128284839583A683B78386E691E09183DC
:103DE0008083A4ECB6E080E48C931296FC93EE936F
:103DF000119714961C921E9213970895CF93DF93F8
:103E0000CDB7DEB72E970FB6F894DEBF0FBECDBF8D
:103E1000789484B5826084BD84B5816084BD85B5A5
:103E2000826085BD85B5816085BD80916E008160B1
:103E300080936E0010928100809181008260809357
:103E40008100809181008160809381008091800059
:103E50008160809380008091B10084608093B10084
:103E60008091B00081608093B00080917A0084607E
:103E700080937A0080917A00826080937A008091AA
:103E80007A00816080937A0080917A0080688093C4
:103E90007A001092C10060ED77E080E090E00E942F
:103EA0002E02E0912B06F0912C0682E08083E091B7
:103EB0002706F09128061082E0912906F0912A0643
:103EC00080E1808310923306E0912F06F091300656
:103ED00086E08083E0912D06F0912E06808180613E
:103EE0008083E0912D06F0912E068081886080838A
:103EF000E0912D06F0912E06808180688083E0910C
:103F00002D06F0912E0680818F7D808390E080E0E9
:103F10000E94D5258B3A09F16BEA90E080E00E947F
:103F2000DD2501E010E019821A821B821C82BE018D
:103F30006F5F7F4FC8010E949B0B19821A821B8200
:103F40001C82BE016F5F7F4FC80104960E949B0BCD
:103F5000085F1F4F0132110531F78091C70690911C
:103F6000C806009711F00E941D2286E090E00E9492
:103F700081213C018091C5069091C6062091C4061E
:103F8000F301208392838183138280E290E0958302
:103F900084837092C8066092C706109280031092C4
:103FA0007F031092E603109208040E94D80381E672
:103FB00092E09093E8028093E70282E692E0909389
:103FC000EA028093E90281E0F3018383C3010E9446
:103FD00025058823E1F060E880E00E9413086AE08C
:103FE00070E080E090E00E942E0280E498E7ADE768
:103FF000B1E08093C9069093CA06A093CB06B09314
:10400000CC0660E070E08AE794E40E943B0860E040
:1040100070E088E492E40E943B0868EE73E080E080
:1040200090E00E942E026FEE72E081E090E00E942C
:10403000CB0B63EF72E085E090E00E94CB0B67EF63
:1040400072E089E090E00E94CB0B6BEF72E08DE0B4
:1040500090E00E94CB0B6FEF72E081E190E00E9454
:10406000CB0B63E073E085E190E00E94CB0B67E04F
:1040700073E089E190E00E94CB0B6BE073E08DE18F
:1040800090E00E94CB0B81E10E94F40190937503B4
:104090008093740380E10E94F401909373038093F2
:1040A00072038FE00E94F401909371038093700378
:1040B0008EE00E94F40190936F0380936E03E5E01D
:1040C000F1E02491E1EFF0E084918823C9F090E0E1
:1040D000880F991FFC01E553FF4F45915491FC0156
:1040E000EB52FF4FA591B4919FB7F894FA0130813C
:1040F000822F809583238083EC91E22BEC939FBFEA
:10410000109266038BE08093670381E080936B03DA
:104110008AE590E0909365038093640340E060E05B
:1041200070E084EB92E40E94AA0790936D03809361
:104130006C0381E10E94F4012C0180E10E94F401F2
:104140003C018FE00E94F4018C018EE00E94F4019A
:10415000F9E04F1AF7E05F0A27EC42165104A0F489
:10416000EDE26E1AE1E07E0AFFEE6F16710460F474
:104170000D511C40073C110538F49C01255A36406E
:1041800091E02F38314008F090E090936303E8E429
:10419000F1E0FE83ED8381EA93E09A878987E9E085
:1041A000F4E0F887EF8383E593E09C878B878FE0CB
:1041B000482E83E0582E9FEE692E92E0792E28E259
:1041C000222E21E0322EE0E2F1E0FE87ED87ED8144
:1041D000FE8161917191FE83ED83072E000C880BA7
:1041E000990B0E94B524AB01BC01E985FA85419386
:1041F000519361937193FA87E987EF81F885419331
:10420000519361937193F887EF83EB85FC8541931C
:10421000519361937193FC87EB87F2014083518343
:10422000628373834483558366837783108AF301A3
:1042300080809180A280B380F101C480D580E68027
:10424000F7800081118122813381F30187818F936F
:1042500086818F9385818F9384818F93ED85FE85F1
:1042600081919191FE87ED870E941F06F1E14F0E2B
:10427000511C28E0620E711C88E0280E311C0F9042
:104280000F900F900F90ED81FE81E055F14009F005
:104290009ECF1092EE021092ED021092B103109296
:1042A000B2031092B3031092B4031092B5031092AC
:1042B000B7031092B60381E08093B80310921806FA
:1042C000109217061092EC021092EB0210921A064E
:1042D00010921906E9E1F4E087E196E0108A719600
:1042E0008E179F07D9F700E010E00E940C1001150F
:1042F0001105D9F30E940E038823B9F30E94000030
:10430000F4CF0F931F93CF93DF938230910510F476
:1043100082E090E0E091CF06F091D00630E020E01E
:10432000B0E0A0E0309799F42115310509F44AC0B6
:10433000281B390B24303105D8F58A819B81611502
:10434000710589F1FB0193838283FE0111C04081D5
:1043500051810281138148175907E0F04817590726
:1043600099F4109761F012960C93129713961C9380
:104370003296CF01DF91CF911F910F910895009355
:10438000CF061093D006F4CF2115310551F0421716
:10439000530738F0A901DB019A01BD01DF01F801E3
:1043A000C1CFEF01F9CF9093D0068093CF06CDCF48
:1043B000FE01E20FF31F819391932250310939835B
:1043C0002883D7CF2091CD063091CE06232B41F400
:1043D00020911201309113013093CE062093CD0627
:1043E00020911001309111012115310541F42DB7B3
:1043F0003EB74091140150911501241B350BE091FB
:10440000CD06F091CE06E217F307A0F42E1B3F0B6A
:104410002817390778F0AC014E5F5F4F2417350736
:1044200048F04E0F5F1F5093CE064093CD06819308
:1044300091939FCFF0E0E0E09CCFCF93DF93009784
:10444000E9F0FC01329713821282A091CF06B0915D
:10445000D006ED0130E020E01097A1F420813181F9
:10446000820F931F2091CD063091CE062817390771
:1044700009F061C0F093CE06E093CD06DF91CF91B5
:104480000895EA01CE17DF07E8F54A815B819E01B6
:1044900041155105B1F7E901FB83EA83499159912F
:1044A000C40FD51FEC17FD0761F48081918102963E
:1044B000840F951FE90199838883828193819B836F
:1044C0008A83F0E0E0E012968D919C91139700971B
:1044D000B9F52D913C911197CD010296820F931F52
:1044E0002091CD063091CE062817390739F630973E
:1044F00051F51092D0061092CF06B093CE06A0933D
:10450000CD06BCCFD383C28340815181840F951FD8
:10451000C817D90761F44E5F5F4F88819981480FB2
:10452000591F518340838A819B8193838283211504
:10453000310509F0B0CFF093D006E093CF069ECFBF
:10454000FD01DC01C0CF13821282D7CF6627772707
:104550000C942D231F93FC0199278827BC01E89414
:1045600011911032E9F3193010F01E30C8F31B32EC
:1045700051F01D3249F4689406C00E94DC22610F9C
:10458000711D811D911D119110531A30B0F33EF42D
:1045900090958095709561957F4F8F4F9F4F1F919C
:1045A0000895BB274A3031F4992322F4BDE2909557
:1045B00081959F4F0C941423592F482F372F262F66
:1045C000660F771F881F991F660F771F881F991F17
:1045D000620F731F841F951F660F771F881F991F17
:1045E0000895BB27FA01A62F621771058105910571
:1045F000330B30FB66F0AA27660F771F881F991FC1
:10460000AA1FA21710F0A21B63953850A9F7A05D4E
:10461000AA3308F0A95DA19336F7B111B1931082C6
:10462000CA010C949E24BB27FB015527AA27880F9B
:10463000991FAA1FA41710F0A41B83955051B9F716
:10464000A05DAA3308F0A95DA193009779F7B11195
:10465000B1931192CB010C949E24B0E0A0E0E3E36F
:10466000F3E20C941B265C017B016115710519F0C6
:10467000DB018D939C9385010F5F1F4FF501D08166
:104680008D2F90E00E947D246C01892BB9F5DD32DD
:10469000B9F50F5F1F4FD5011196DC91C1E05801AC
:1046A000F1E0AF1AB10843E050E06EE870E0C501F8
:1046B0000E948624892B69F5680182E0C80ED11C0E
:1046C00045E050E069E870E0C6010E948624892B2D
:1046D00021F4680197E0C90ED11CE114F10419F02E
:1046E000D701CD92DC9260E070E080E89FEFC111CD
:1046F000FFC060E070E080E89FE7FAC05801BBCFE0
:10470000DB3229F485010E5F1F4FF501D181C0E036
:10471000C6CF43E050E066E870E0C5010E94862401
:10472000892BE9F0F80110E000E020E030E0A90179
:104730005F01B0ED8B2E8D0E89E08815C8F19C2E9F
:10474000689491F88C2F8870C2FF16C0811102C046
:104750000F5F1F4F3196D501DC91C92DE9CFE114D0
:10476000F10429F00E5F1F4FF7011183008360E011
:1047700070E080EC9FE7BCC0882311F00150110964
:10478000A5E0B0E00E940A269B01AC01220F331F76
:10479000441F551F280D311D411D511D283999E910
:1047A0003907490799E15907A8F2C6609C2ED2CF74
:1047B000AEEF8A1206C0C3FD3CC09C2E689493F8ED
:1047C000C9CFDF7DD534A9F580818D3239F4C06140
:1047D000DF011296818162E070E006C0DF018B325A
:1047E000C1F3119661E070E080535D01A61AB70A2B
:1047F0008A30F8F4E0E8CE16ECE0DE065CF4B601B0
:10480000660F771F660F771FC60ED71ECC0CDD1CF8
:10481000C80ED11C5D01FFEFAF1ABF0A8C91805307
:104820008A30A8F1C4FF03C0D194C194D1080C0D03
:104830001D1DC1FF09C0E114F10431F081E0A81A87
:10484000B108D701AD92BC92CA01B9010E94B3244C
:10485000C370C33009F490584B015C0120E030E094
:10486000A9010E94AE24882309F440C0CDEBD0E01A
:1048700017FF05C0119501951109C5EAD0E06E0139
:10488000B8E1CB1AD10880E2E82EF12C0FC0D50197
:10489000B1CFFE0125913591459154910E191F0913
:1048A000C501B4010E9414254B015C01D501C4016E
:1048B0000E151F0574F72497F594E794CC16DD06C2
:1048C000A9F78A2F880F8B2F881F8F3F49F020E090
:1048D00030E0A901C501B4010E94AE24811106C0D7
:1048E00082E290E09093D2068093D106C501B40194
:1048F000CDB7DEB7ECE00C94372691110C948125EE
:10490000803219F089508550C8F70895FB01DC0109
:104910004150504088F08D9181341CF08B350CF45F
:10492000805E659161341CF06B350CF4605E861B13
:10493000611171F3990B0895881BFCCFDC01FC0118
:10494000672F71917723E1F7329704C07C916D93C3
:1049500070836291AE17BF07C8F308950E94F024D8
:1049600008F481E00895E89409C097FB3EF490951F
:104970008095709561957F4F8F4F9F4F9923A9F038
:10498000F92F96E9BB279395F695879577956795C7
:10499000B795F111F8CFFAF4BB0F11F460FF1BC00B
:1049A0006F5F7F4F8F4F9F4F16C0882311F096E99E
:1049B00011C0772321F09EE8872F762F05C066234C
:1049C00071F096E8862F70E060E02AF09A95660F05
:1049D000771F881FDAF7880F9695879597F90895BE
:1049E000990F0008550FAA0BE0E8FEEF1616170600
:1049F000E807F907C0F012161306E407F50798F068
:104A0000621B730B840B950B39F40A2661F0232B80
:104A1000242B252B21F408950A2609F4A140A695FC
:104A20008FEF811D811D08950E9427250C949B25E1
:104A30000E948D2538F00E94942520F0952311F0D6
:104A40000C9484250C948A2511240C94CF250E9463
:104A5000AC2570F3959FC1F3950F50E0551F629FF1
:104A6000F001729FBB27F00DB11D639FAA27F00DC7
:104A7000B11DAA1F649F6627B00DA11D661F829FEE
:104A80002227B00DA11D621F739FB00DA11D621FD3
:104A9000839FA00D611D221F749F3327A00D611DF0
:104AA000231F849F600D211D822F762F6A2F1124D2
:104AB0009F5750409AF0F1F088234AF0EE0FFF1F05
:104AC000BB1F661F771F881F91505040A9F79E3F5C
:104AD000510580F00C9484250C94CF255F3FE4F3BE
:104AE000983ED4F3869577956795B795F795E795B2
:104AF0009F5FC1F7FE2B880F911D9695879597F9BB
:104B0000089599278827089597F99F6780E870E0AE
:104B100060E008959FEF80EC089500240A94161633
:104B2000170618060906089500240A94121613069B
:104B3000140605060895092E0394000C11F4882329
:104B400052F0BB0F40F4BF2B11F460FF04C06F5F45
:104B50007F4F8F4F9F4F089557FD9058440F551F1B
:104B600059F05F3F71F04795880F97FB991F61F0EF
:104B70009F3F79F087950895121613061406551F66
:104B8000F2CF4695F1DF08C0161617061806991FD2
:104B9000F1CF86957105610508940895E894BB27C7
:104BA00066277727CB0197F90895F999FECF92BD33
:104BB00081BDF89A992780B50895262FF999FECFDF
:104BC0001FBA92BD81BD20BD0FB6F894FA9AF99A2A
:104BD0000FBE01960895052E97FB1EF400940E94C7
:104BE000022657FD07D00E944C2607FC03D04EF446
:104BF0000C94022650954095309521953F4F4F4F8C
:104C00005F4F089590958095709561957F4F8F4F78
:104C10009F4F08950E946E26A59F900DB49F900D02
:104C2000A49F800D911D112408952F923F924F92C1
:104C30005F926F927F928F929F92AF92BF92CF922C
:104C4000DF92EF92FF920F931F93CF93DF93CDB735
:104C5000DEB7CA1BDB0B0FB6F894DEBF0FBECDBFAD
:104C600009942A88398848885F846E847D848C847E
:104C70009B84AA84B984C884DF80EE80FD800C8187
:104C80001B81AA81B981CE0FD11D0FB6F894DEBF6A
:104C90000FBECDBFED010895A1E21A2EAA1BBB1BCA
:104CA000FD010DC0AA1FBB1FEE1FFF1FA217B307F8
:104CB000E407F50720F0A21BB30BE40BF50B661F0E
:104CC000771F881F991F1A9469F7609570958095D2
:104CD00090959B01AC01BD01CF010895A29FB00149
:104CE000B39FC001A39F700D811D1124911DB29F20
:104CF000700D811D1124911D08955058BB27AA27BE
:104D00000E9495260C949B250E948D2538F00E94C8
:104D1000942520F039F49F3F19F426F40C948A2549
:104D20000EF4E095E7FB0C948425E92F0E94AC2556
:104D300058F3BA17620773078407950720F079F4D0
:104D4000A6F50C94CE250EF4E0950B2EBA2FA02DCF
:104D50000B01B90190010C01CA01A0011124FF2728
:104D6000591B99F0593F50F4503E68F11A16F04023
:104D7000A22F232F342F4427585FF3CF4695379522
:104D80002795A795F0405395C9F77EF41F16BA0BE7
:104D9000620B730B840BBAF09150A1F0FF0FBB1F95
:104DA000661F771F881FC2F70EC0BA0F621F731FDE
:104DB000841F48F4879577956795B795F7959E3F3B
:104DC00008F0B0CF9395880F08F09927EE0F9795CC
:104DD000879508950E94FE260C949B250E94942599
:104DE00058F00E948D2540F029F45F3F29F00C9483
:104DF000842551110C94CF250C948A250E94AC2552
:104E000068F39923B1F3552391F3951B550BBB27F9
:104E1000AA2762177307840738F09F5F5F4F220F3E
:104E2000331F441FAA1FA9F335D00E2E3AF0E0E835
:104E300032D091505040E695001CCAF72BD0FE2F7F
:104E400029D0660F771F881FBB1F26173707480713
:104E5000AB07B0E809F0BB0B802DBF01FF279358CB
:104E60005F4F3AF09E3F510578F00C9484250C94E6
:104E7000CF255F3FE4F3983ED4F386957795679509
:104E8000B795F7959F5FC9F7880F911D9695879500
:104E900097F90895E1E0660F771F881FBB1F62171F
:104EA00073078407BA0720F0621B730B840BBA0BDD
:104EB000EE1F88F7E09508950E9463276894B1116A
:104EC0000C94CF2508950E94B42588F09F5798F040
:104ED000B92F9927B751B0F0E1F0660F771F881FFF
:104EE000991F1AF0BA95C9F714C0B13091F00E9419
:104EF000CE25B1E008950C94CE25672F782F882712
:104F0000B85F39F0B93FCCF3869577956795B3953F
:104F1000D9F73EF490958095709561957F4F8F4FAE
:104F20009F4F08950E94F02408F48FEF08959F93F7
:104F30000E94A6270F9007FCEE5F0C94CF270E94DB
:104F4000F024880B990B08950C948A250E94B425AF
:104F5000D8F3E894E0E0BB279F57F0F02AED3FE05C
:104F600049EC06C0EE0FBB0F661F771F881F28F0A5
:104F7000B23A62077307840728F0B25A620B730BC8
:104F8000840BE3959A9572F7803830F49A95BB0FAD
:104F9000661F771F881FD2F790480C94E527EF9380
:104FA000E0FF07C0A2EA2AED3FE049EC5FEB0E9478
:104FB00095260E949B250F90039401FC9058E8E6EB
:104FC000F0E00C94F1279F3F31F0915020F4879549
:104FD00077956795B795880F911D9695879597F961
:104FE00008959F938F937F936F93FF93EF939B010C
:104FF000AC010E941425EF91FF910E9405282F918A
:105000003F914F915F910C941425DF93CF931F93A1
:105010000F93FF92EF92DF927B018C01689406C0A0
:10502000DA2EEF010E942725FE01E894A591259133
:10503000359145915591A6F3EF010E949526FE0109
:105040009701A801DA9469F7DF90EF90FF900F9134
:105050001F91CF91DF910895DB018F939F930E9461
:105060000A26BF91AF91A29F800D911DA39F900D25
:10507000B29F900D1124089597FB072E16F400940B
:1050800007D077FD09D00E94502807FC05D03EF4D8
:10509000909581959F4F0895709561957F4F0895E4
:1050A000AA1BBB1B51E107C0AA1FBB1FA617B7074E
:1050B00010F0A61BB70B881F991F5A95A9F780956A
:1050C0009095BC01CD010895EE0FFF1F0590F4915E
:1050D000E02D0994B0E0A0E0E0E7F8E20C94172698
:1050E0008C01009751F4CB010E9481218C01C801F1
:1050F000CDB7DEB7E0E10C943326FC01E60FF71FD5
:105100009C0122503109E217F30708F49DC0D90130
:10511000CD91DC911197C617D70798F0C530D1050E
:1051200030F3CE0104978617970708F3C61BD70BF9
:105130002297C193D1936D937C93CF010E941D223E
:10514000D6CF5B01AC1ABD0A4C018C0E9D1EA091FE
:10515000CF06B091D006512C412CF12CE12C1097A8
:1051600031F58091CD069091CE068815990509F00C
:105170005CC04616570608F058C080911001909107
:105180001101009741F48DB79EB7409114015091E1
:105190001501841B950BE817F90708F055C0F0932B
:1051A000CE06E093CD06F90171836083A0CF8D9187
:1051B0009C91119712966C90129713967C9013976E
:1051C000A815B90559F56C0142E0C40ED11CCA14EA
:1051D000DB0420F1AC014A195B09DA01129615973C
:1051E00080F06282738251834083D9016D937C93F6
:1051F000E114F10471F0D7011396FC93EE9312972A
:1052000076CF22968C0F9D1FF90191838083F30145
:10521000EFCFF093D006E093CF0669CF481659063A
:1052200008F42C017D01D3019ACFCB010E9481218A
:105230007C01009749F0AE01B8010E942729C801FE
:105240000E941D22870153CF10E000E050CFFB01E8
:10525000DC0102C001900D9241505040D8F70895F2
:10526000FC018191861721F08823D9F799270895A9
:105270003197CF010895FB01DC018D9101908019D8
:105280000110D9F3990B0895FB01DC0101900D92F7
:105290000020E1F70895FB01DC014150504030F05F
:1052A0008D910190801919F40020B9F7881B990B92
:0652B0000895F894FFCF01
:1052B6000000803F0000803F0000803F0000803FEC
:1052C6000000D30680000E000F001000110012002F
:1052D6000F000E000D000C000000B4C20000B44226
:1052E6000000000000002A43000070430000B443A1
:1052F6000000B4C20000B4420000000068010000D3
:105306000000000044036402910291030203A0021C
:10531600F40200000000B5058805E4055E05810578
:105326006E055F050D0A006E616E00696E66006FA0
:105336007666005645524300494E464F5300312E7D
:10534600312E312D41726475696E6F005645522CAF
:1053560000426F6172643A2041726475696E6F2013
:10536600436F6D70617469626C6500467265652095
:105376004D656D3A200020627974657300494E468A
:105386004F450043414C4942524154452C00444547
:105396004C41592C004D53005245435354415254ED
:1053A6000052454353544F50005245502C00504F25
:1053B600544F464600504F543000504F544F4E0005
:1053C600504F543100544F524F5300544F43545290
:1053D60000544F4F4C5B475249505045525D00496F
:1053E6004F0043503200544F4F4C5B50454E5D00CA
:1053F600544F4F4C5B50554D505D004D3238300088
:1054060045584543005245434F4E43454A00514691
:10541600554C4C00435030005245434F4E43455483
:10542600005350442C004750554C53452C005055C2
:105436004C53452C4A00435031005245432C004DF5
:0A5446003238302C005450300000C2
:00000001FF
